{
  "address": "0x69BB6A0eB3F2205eE523579c2E1e9bB34DcCF17A",
  "abi": [
    {
      "inputs": [],
      "name": "donate",
      "outputs": [],
      "stateMutability": "payable",
      "type": "function"
    },
    {
      "inputs": [
        {
          "internalType": "address",
          "name": "",
          "type": "address"
        },
        {
          "internalType": "uint256",
          "name": "",
          "type": "uint256"
        }
      ],
      "name": "donations",
      "outputs": [
        {
          "internalType": "address",
          "name": "donor",
          "type": "address"
        },
        {
          "internalType": "uint256",
          "name": "amount",
          "type": "uint256"
        },
        {
          "internalType": "uint256",
          "name": "timestamp",
          "type": "uint256"
        }
      ],
      "stateMutability": "view",
      "type": "function"
    },
    {
      "inputs": [],
      "name": "getAllUsers",
      "outputs": [
        {
          "internalType": "address[]",
          "name": "",
          "type": "address[]"
        }
      ],
      "stateMutability": "view",
      "type": "function"
    },
    {
      "inputs": [],
      "name": "getTotalDonation",
      "outputs": [
        {
          "internalType": "uint256",
          "name": "",
          "type": "uint256"
        }
      ],
      "stateMutability": "view",
      "type": "function"
    },
    {
      "inputs": [
        {
          "internalType": "address",
          "name": "user",
          "type": "address"
        }
      ],
      "name": "getTotalDonationByUser",
      "outputs": [
        {
          "internalType": "uint256",
          "name": "",
          "type": "uint256"
        }
      ],
      "stateMutability": "view",
      "type": "function"
    }
  ],
  "transactionHash": "0x68c75f12b07c45792770c27d9a249bad1046c46e3a1acc3b5b6fac9b607d789d",
  "args": [],
  "numDeployments": 1,
  "solcInputHash": "cfe46a1203b6ff99d71c24f5573511de",
  "bytecode": "0x608060405234801561001057600080fd5b50610a64806100206000396000f3fe60806040526004361061004a5760003560e01c806356e23eb11461004f57806395086ed11461007a578063c885b220146100b9578063e2842d79146100f6578063ed88c68e14610121575b600080fd5b34801561005b57600080fd5b5061006461012b565b6040516100719190610674565b60405180910390f35b34801561008657600080fd5b506100a1600480360381019061009c919061071e565b610196565b6040516100b09392919061076d565b60405180910390f35b3480156100c557600080fd5b506100e060048036038101906100db91906107a4565b6101fd565b6040516100ed9190610674565b60405180910390f35b34801561010257600080fd5b5061010b61035c565b604051610118919061088f565b60405180910390f35b610129610521565b005b60008060009050600061013c61035c565b905060005b815181101561018d5761016d8282815181106101605761015f6108b1565b5b60200260200101516101fd565b83610178919061090f565b9250808061018590610943565b915050610141565b50819250505090565b600060205281600052604060002081815481106101b257600080fd5b9060005260206000209060030201600091509150508060000160009054906101000a900473ffffffffffffffffffffffffffffffffffffffff16908060010154908060020154905083565b6000806000905060008060008573ffffffffffffffffffffffffffffffffffffffff1673ffffffffffffffffffffffffffffffffffffffff168152602001908152602001600020805480602002602001604051908101604052809291908181526020016000905b8282101561030057838290600052602060002090600302016040518060600160405290816000820160009054906101000a900473ffffffffffffffffffffffffffffffffffffffff1673ffffffffffffffffffffffffffffffffffffffff1673ffffffffffffffffffffffffffffffffffffffff1681526020016001820154815260200160028201548152505081526020019060010190610264565b50505050905060005b815181101561035157818181518110610325576103246108b1565b5b6020026020010151602001518361033c919061090f565b9250808061034990610943565b915050610309565b508192505050919050565b60608060005b3373ffffffffffffffffffffffffffffffffffffffff163181101561051957600073ffffffffffffffffffffffffffffffffffffffff166000803373ffffffffffffffffffffffffffffffffffffffff1673ffffffffffffffffffffffffffffffffffffffff16815260200190815260200160002082815481106103e9576103e86108b1565b5b906000526020600020906003020160000160009054906101000a900473ffffffffffffffffffffffffffffffffffffffff1673ffffffffffffffffffffffffffffffffffffffff1614610506576000803373ffffffffffffffffffffffffffffffffffffffff1673ffffffffffffffffffffffffffffffffffffffff1681526020019081526020016000208181548110610486576104856108b1565b5b906000526020600020906003020160000160009054906101000a900473ffffffffffffffffffffffffffffffffffffffff168282815181106104cb576104ca6108b1565b5b602002602001019073ffffffffffffffffffffffffffffffffffffffff16908173ffffffffffffffffffffffffffffffffffffffff16815250505b808061051190610943565b915050610362565b508091505090565b60003411610564576040517f08c379a000000000000000000000000000000000000000000000000000000000815260040161055b90610a0e565b60405180910390fd5b6000803373ffffffffffffffffffffffffffffffffffffffff1673ffffffffffffffffffffffffffffffffffffffff16815260200190815260200160002060405180606001604052803373ffffffffffffffffffffffffffffffffffffffff16815260200134815260200142815250908060018154018082558091505060019003906000526020600020906003020160009091909190915060008201518160000160006101000a81548173ffffffffffffffffffffffffffffffffffffffff021916908373ffffffffffffffffffffffffffffffffffffffff16021790555060208201518160010155604082015181600201555050565b6000819050919050565b61066e8161065b565b82525050565b60006020820190506106896000830184610665565b92915050565b600080fd5b600073ffffffffffffffffffffffffffffffffffffffff82169050919050565b60006106bf82610694565b9050919050565b6106cf816106b4565b81146106da57600080fd5b50565b6000813590506106ec816106c6565b92915050565b6106fb8161065b565b811461070657600080fd5b50565b600081359050610718816106f2565b92915050565b600080604083850312156107355761073461068f565b5b6000610743858286016106dd565b925050602061075485828601610709565b9150509250929050565b610767816106b4565b82525050565b6000606082019050610782600083018661075e565b61078f6020830185610665565b61079c6040830184610665565b949350505050565b6000602082840312156107ba576107b961068f565b5b60006107c8848285016106dd565b91505092915050565b600081519050919050565b600082825260208201905092915050565b6000819050602082019050919050565b610806816106b4565b82525050565b600061081883836107fd565b60208301905092915050565b6000602082019050919050565b600061083c826107d1565b61084681856107dc565b9350610851836107ed565b8060005b83811015610882578151610869888261080c565b975061087483610824565b925050600181019050610855565b5085935050505092915050565b600060208201905081810360008301526108a98184610831565b905092915050565b7f4e487b7100000000000000000000000000000000000000000000000000000000600052603260045260246000fd5b7f4e487b7100000000000000000000000000000000000000000000000000000000600052601160045260246000fd5b600061091a8261065b565b91506109258361065b565b925082820190508082111561093d5761093c6108e0565b5b92915050565b600061094e8261065b565b91507fffffffffffffffffffffffffffffffffffffffffffffffffffffffffffffffff82036109805761097f6108e0565b5b600182019050919050565b600082825260208201905092915050565b7f446f6e6174696f6e20616d6f756e74206d75737420626520677265617465722060008201527f7468616e20300000000000000000000000000000000000000000000000000000602082015250565b60006109f860268361098b565b9150610a038261099c565b604082019050919050565b60006020820190508181036000830152610a27816109eb565b905091905056fea26469706673582212206e6e71af59dc1eef5716fd439d9b981b5c9d0d2d47f073a4f9f4bdf911990d7264736f6c63430008120033",
  "devdoc": {
    "kind": "dev",
    "methods": {},
    "version": 1
  },
  "userdoc": {
    "kind": "user",
    "methods": {},
    "version": 1
  },
  "storageLayout": {
    "storage": [
      {
        "astId": 14,
        "contract": "contracts/Charity.sol:DonationTracker",
        "label": "donations",
        "offset": 0,
        "slot": "0",
        "type": "t_mapping(t_address,t_array(t_struct(Donation)8_storage)dyn_storage)"
      }
    ],
    "types": {
      "t_address": {
        "encoding": "inplace",
        "label": "address",
        "numberOfBytes": "20"
      },
      "t_array(t_struct(Donation)8_storage)dyn_storage": {
        "base": "t_struct(Donation)8_storage",
        "encoding": "dynamic_array",
        "label": "struct DonationTracker.Donation[]",
        "numberOfBytes": "32"
      },
      "t_mapping(t_address,t_array(t_struct(Donation)8_storage)dyn_storage)": {
        "encoding": "mapping",
        "key": "t_address",
        "label": "mapping(address => struct DonationTracker.Donation[])",
        "numberOfBytes": "32",
        "value": "t_array(t_struct(Donation)8_storage)dyn_storage"
      },
      "t_struct(Donation)8_storage": {
        "encoding": "inplace",
        "label": "struct DonationTracker.Donation",
        "members": [
          {
            "astId": 3,
            "contract": "contracts/Charity.sol:DonationTracker",
            "label": "donor",
            "offset": 0,
            "slot": "0",
            "type": "t_address"
          },
          {
            "astId": 5,
            "contract": "contracts/Charity.sol:DonationTracker",
            "label": "amount",
            "offset": 0,
            "slot": "1",
            "type": "t_uint256"
          },
          {
            "astId": 7,
            "contract": "contracts/Charity.sol:DonationTracker",
            "label": "timestamp",
            "offset": 0,
            "slot": "2",
            "type": "t_uint256"
          }
        ],
        "numberOfBytes": "96"
      },
      "t_uint256": {
        "encoding": "inplace",
        "label": "uint256",
        "numberOfBytes": "32"
      }
    }
  }
}